:020000040800F2
:10000000601A002041580008515800085358000851
:1000100055580008575800085958000800000000BB
:100020000000000000000000000000005B58000815
:100030005D580008000000005F58000811590008D2
:1000400015590008195900081D59000821590008C0
:1000500025590008295900082D5900083159000870
:1000600035590008395900083D5900084159000820
:1000700045590008495900084D59000851590008D0
:1000800055590008595900085D5900086159000880
:1000900065590008695900086D5900087159000830
:1000A00075590008795900087D59000881590008E0
:1000B000895100080952000821520008855900089A
:1000C000895900088D590008915900089559000870
:1000D00099590008A1170008BB170008D517000898
:1000E0009D590008A1590008A5590008A959000800
:1000F000AD590008B1590008B5590008B9590008B0
:10010000BD590008C1590008C5590008C95900085F
:10011000EF17000809180008CD590008D159000848
:10012000D5590008D9590008DD590008E1590008DF
:1001300080B55FF4E13001F04CFADFF8E80B01F034
:100140008BFB0100C9B2DFF8DC0B00F01DF84FF4A7
:100150007A7001F0B5FBDFF8CC0B01F07DFB0100FC
:10016000C9B2DFF8C00B00F00FF84FF47A7001F05D
:10017000A7FBDFF8B00D01F06FFB0100C9B2DFF89B
:10018000A40D00F001F801BD38B504000D002A00EF
:10019000D2B22100DFF8900B01F0D3FA2A00D2B2DC
:1001A0002100DFF8840D01F0CCFA31BD38B5140020
:1001B0001D00DFF8782D1278002A0AD10122DFF81D
:1001C0006C3D1A70C9B2FFF7DFFF0020DFF8CC1BCF
:1001D0000880207800280FD00020DFF8501D08701C
:1001E000002020700020DFF8B41B08800020DFF81A
:1001F000B01B0870012027E0DFF8A00B0088ADB22B
:10020000A84220D30020DFF8941B08800020DFF8EC
:100210001C1D0870DFF8880B0078401CDFF8801B7D
:100220000870DFF87C0B0178049881420BD3002022
:10023000DFF86C1B08700598C0B2012805D10120B9
:10024000DFF8601B0870002032BDC0B20228FAD16E
:100250000020DFF8D81C0870002020700120F3E790
:100260001CB50400DFF8480D01F0F6FA01210191F8
:1002700003210091C823DFF8D02B0100C9B2DFF8B9
:10028000300DFFF793FF002802D02078401C20702B
:1002900013BD1CB50400DFF88C0D01F0DDFA01215F
:1002A000019103210091C823DFF89C2B0100C9B202
:1002B000DFF8700DFFF77AFF002802D02078401C8D
:1002C000207013BD1CB50C00C0B2012804D012D39D
:1002D00003280BD005D30EE03120DFF84C1D8872C7
:1002E00009E03220DFF8401D887204E03320DFF897
:1002F000381D8872FFE7DFF8300D01F0ADFA01001C
:100300000120019003200090C823DFF83C2BC9B2E4
:10031000DFF8140DFFF74AFF002802D02078401CB8
:10032000207013BD1CB50400DFF8000D007850F0FC
:100330000100DFF8F81C0870DFF8BC0B01F08CFA44
:1003400001210191032100914FF47A73DFF8AC2B66
:100350000100C9B2DFF8A00BFFF728FF00280AD080
:100360002078401C2070DFF8C40C007810F0FE00EC
:10037000DFF8B81C087013BD30B400230024DBB2D2
:100380001D5C002D09D0DBB21D5CC9B28D4208D1C5
:10039000641CE4B2D2B2944203D11800C0B230BCA3
:1003A00070475B1CDBB2322BE9DB0020F7E72DE95D
:1003B000F84304000D0016001F006846DFF8701BAC
:1003C000032201F0C7FADFF8BC0B007800285BD1EC
:1003D000DFF8B00B007850F00100DFF8A81B0870C0
:1003E000200001F039FA804601223D212000FFF76C
:1003F000C3FF814601223D212000FFF7BDFF5FFAC8
:1004000089F9B8EB0901491E0022C0B2001910F1A8
:100410000108404601F0DAFAA9A1200001F009FB29
:100420002900200001F005FBA5A1200001F001FB3F
:10043000A4A1200001F0FDFAA1A1200001F0F9FA29
:100440003100200001F0F5FA9DA1200001F0F1FA41
:100450000822DFF8601B200001F0FAFA00280FD113
:1004600098A1200001F0E5FA3900200001F0E1FA3E
:1004700094A1200001F0DDFA08A9200001F0D9FACA
:100480006946200001F0D5FABDE8F1831CB51400DF
:100490000022009200230A000100DFF89C0BFFF706
:1004A00086FFDFF8940B01F0D7F9012101910321B8
:1004B00000914FF47A73DFF890290100C9B2DFF898
:1004C000780BFFF773FE00280DD02078401C2070B9
:1004D0000020DFF8B01A087029210022DFF85C4BF9
:1004E000200001F073FA13BDF8B504000D00684652
:1004F000DFF84C1B032201F02DFADFF8880A0078A0
:10050000002830D1DFF87C0A007850F00100DFF8D5
:10051000741A0870200001F09FF9060001223D21A5
:100520002000FFF729FF070001223D212000FFF7EF
:1005300023FFFFB2F11B491E0022C0B20019461C66
:10054000300001F043FAB9A1200001F072FA29004D
:10055000200001F06EFAB5A1200001F06AFA6946A8
:10056000200001F066FAF1BD1CB50C000100DFF8B7
:10057000D40AFFF7B9FFDFF8CC0A01F06DF90100EA
:100580000120019003200090C823DFF8BC28C9B2E5
:10059000DFF8B00AFFF70AFE002818D0DFF8E409F8
:1005A000007810F0FE00DFF8DC19087000202070E1
:1005B000DFF8940A007850F00100DFF88C1A087018
:1005C00014210022DFF8F44C200001F0FFF913BDE4
:1005D00080B5DFF8780A0078002809D0022811D009
:1005E0000BD3042819D013D3062824D01AD329E01A
:1005F000DFF8580AFFF734FE24E0DFF8500AFFF76F
:1006000048FE1FE0DFF8441A0120FFF75BFE19E007
:10061000DFF8380AFFF786FE14E0DFF8300AFFF74C
:1006200038FE0FE0DFF8242ADFF8241ADFF8240A66
:10063000FFF72CFF06E0DFF8141ADFF8840CFFF751
:1006400093FFFFE701BD80B5DFF8FC1909780029A9
:100650000BD1C0B2012804D007D3032805D003D39F
:1006600003E0FFF7B5FF00E0FFE701BD1CB50C009C
:10067000C0B2002802D0012805D009E03020DFF800
:10068000441C887204E03120DFF8381C8872FFE7D0
:10069000DFF8300C01F0E0F80100012001900320A8
:1006A0000090C823DFF8A027C9B2DFF8180CFFF7C5
:1006B0007DFD002802D02078401C207013BD000072
:1006C000220000002C0000002DE9F3410400150079
:1006D0001E006846DFF8F01B032201F03BF9DFF84B
:1006E000A4080078002856D1DFF89808007850F068
:1006F0000100DFF890180870200001F0ADF8070045
:1007000001223D212000FFF737FE804601223D21D6
:100710002000FFF731FE5FFA88F8B7EB0801491EA9
:100720000022C0B20019471C380001F04FF99DF8B3
:100730000400FF2807D001A9200001F07AF9C9A11F
:10074000200001F076F939A1200001F072F92900AA
:10075000200001F06EF935A1200001F06AF9C1A175
:10076000200001F066F931A1200001F062F93100AA
:10077000200001F05EF92DA1200001F05AF9B9A185
:10078000200001F056F90899200001F052F969465D
:10079000200001F04EF9BDE8F38130B583B00500CB
:1007A000069CDFF8280B0078022807D10020DFF82C
:1007B000D41708702078401C207035E00093130097
:1007C0000A002900C9B2DFF8080BFFF77DFFDFF848
:1007D000000B01F041F801210191032100914FF438
:1007E0007A73DFF864260100C9B2DFF8E40AFFF784
:1007F000DDFC002818D00020DFF88817087020786A
:10080000401C207026210022DFF8C84A200001F099
:10081000DDF8EDB2FF2D07D1DFF8340C007850F091
:100820000100DFF82C1C087037BD0000220000001A
:1008300010B400230022DBB21C5C002C0BD0DBB216
:100840001C5CC9B28C4200D1521C5B1CDBB2322B47
:10085000F1DB002001E01000C0B210BC704710B501
:1008600004000020200000F0F7FFC0B2012804D0EF
:100870001BD303280DD004D317E020783038C0B242
:1008800014E020780A21627801FB00201038C0B201
:100890000CE02078642162780A235A4301FB00208F
:1008A000A17808183030C0B200E0002010BD38B583
:1008B000DFF8840B0078002800F0D280DFF8780B96
:1008C000007810F0FE00DFF8701B08702C21DFF8B4
:1008D000880BFFF7ADFF022864DB02222C21DFF832
:1008E000780BFFF749FD040001222C21DFF8680B8B
:1008F000FFF742FD050001222C21DFF85C0BFFF71A
:100900003BFDE4B2EDB2611B4A1EDFF84C1BC0B2E6
:100910004018411CDFF8444B200001F01BF8DFF8C1
:100920003C0B0078DFF8381B087001223A21DFF811
:10093000280BFFF721FD040002222C21DFF8180B01
:10094000FFF71AFD050002222C21DFF80C0BFFF740
:1009500013FDE4B2EDB2611B4A1EDFF8FC1AC0B20F
:100960004018411CDFF8FC4A200000F0F3FFDFF8DC
:10097000F40AFFF774FFDFF8E81A487001223A2101
:10098000DFF8D40AFFF7F8FCDFF8D41A4A78DFF86A
:10099000C81AC0B24018411CDFF8CC4A200000F051
:1009A000D9FF3FE0FE20DFF8B81A087001223A2193
:1009B000DFF8A40AFFF7E0FC040001222C21DFF895
:1009C000980AFFF7D9FC050001222C21DFF8880ADC
:1009D000FFF7D2FCE4B2EDB2611B4A1EDFF8781AD1
:1009E000C0B24018411CDFF87C4A200000F0B2FF82
:1009F000DFF8700AFFF733FFDFF8641A487001224E
:100A00003A21DFF8540AFFF7B7FCDFF8541A4A78A6
:100A1000DFF8441AC0B24018411CDFF84C4A2000ED
:100A200000F098FF0522DFF8441ADFF83C0A01F0D5
:100A30000FF8002801D101F06DF80622DFF8301A16
:100A4000DFF8240A01F004F8002801D101F056F87B
:100A500040F201110022DFF8084A200000F0B6FF42
:100A600031BD00002C00000070B506000C00002510
:100A700000E06D1CEDB2162000FB05400078002858
:100A800015D0300000F0E8FE02003100EDB2162073
:100A900000FB0540801C00F0DBFF0028E9D1EDB22F
:100AA000162000FB054000783038C0B200E0FE2080
:100AB00070BDF4B584B004000D006846002100222A
:100AC00006C0083800200021002202A8DFF8A4197F
:100AD000032200F03FFFDFF8AC040078002869D162
:100AE000DFF8A004007850F00100DFF898140870D7
:100AF000200000F0B1FE060001223D212000FFF79A
:100B00003BFC070001223D212000FFF735FCFFB22E
:100B1000F11B491E0022C0B20019461C300000F033
:100B200055FFEDB2642095FBF0F2EDB20A2095FB83
:100B3000F0F00A2190FBF1F301FB1301EDB20A2062
:100B400095FBF0F300FB1350D2B2002A09D03032EB
:100B50008DF8002030318DF8011030308DF8020012
:100B60000FE0C9B2002906D030318DF800103030C6
:100B70008DF8010005E0C0B2002802D030308DF8B9
:100B800000009DF81000FF280CD09DF810003030B8
:100B90008DF8100004A9200000F04BFFC8A1200030
:100BA00000F047FF6946200000F043FF02A9200043
:100BB00000F03FFF05B0F0BD1CB514000200D2B23A
:100BC000C9B2DFF8B408FFF774FFDFF8AC0800F033
:100BD00043FE0121019103210091C823DFF89C28E5
:100BE0000100C9B2DFF89008FFF7E0FA00280DD045
:100BF0002078401C207009210022DFF88448200062
:100C000000F0E4FE0020DFF87C13087013BD1CB573
:100C100014000222019203220092C823DFF8642804
:100C2000C9B2FFF7C3FA00281BD000202070DFF8FC
:100C3000580890F8140110F0FE00DFF84C1881F805
:100C4000140140F215110022DFF83C48200000F0AA
:100C5000BDFEDFF83808007810F0FE00DFF82C1831
:100C6000087013BD80B50B001100DFF8242812783E
:100C7000002A02D0012A07D00DE0DFF81428C9B2FB
:100C8000C0B2FFF799FF06E0DFF80428C9B21800E8
:100C9000FFF7BDFFFFE701BD38B50C0015000023CD
:100CA000DFF8AC170978002905D1DFF8E817FFF75E
:100CB000DBFE030000E0FF23DBB2FE2B07D02A009F
:100CC000D2B221001800C0B2FFF7CCFF19E0DFF864
:100CD000B80790F8140110F0FE00DFF8AC1781F8A7
:100CE000140140F215110022DFF89C47200000F0AB
:100CF0006DFEDFF89807007810F0FE00DFF88C1723
:100D0000087031BD80B5DFF884070078002808D06E
:100D1000DFF87407027DDFF88017DFF86C07FFF754
:100D2000BBFF01BD780200200048004080B5FFF7FE
:100D3000BEFDFFF7E7FF01BD80B5C448007800287D
:100D400003D0022812D005D327E0C0490020FFF7C6
:100D50008DFC22E0BD480090DFF84037DFF84027E7
:100D6000DFF84017FF20FFF718FD16E00E21DFF82F
:100D70003807FFF709FA4FF4967000F0A1FD0C2137
:100D8000DFF82807FFF700FA4FF4967000F098FD9F
:100D90000120DFF81C170860FFE701BD42120020A8
:100DA0004B120020491200202DE9F04182B00400CE
:100DB0000D0016006846DFF8FC16032200F0CAFD9D
:100DC0007048007800283CD16E48007850F001004F
:100DD0006C490870200000F03FFD070001223D2112
:100DE0002000FFF7C9FA804601223D212000FFF7CD
:100DF000C3FA5FFA88F8B7EB0801491E0022C0B2B7
:100E00000019471C380000F0E1FDF6B2002E02D0B8
:100E1000012E05D009E086A1200000F00AFE04E0C2
:100E200084A1200000F005FEFFE725A1200000F0CE
:100E300000FE2900200000F0FCFD6946200000F0C3
:100E4000F8FDBDE8F38100004C1200201CB5140031
:100E50000200D2B2DFF86006FFF7A6FFDFF85806FF
:100E600000F0FAFC0121019103210091C823DFF871
:100E70004C260100C9B2DFF84006FFF797F90028B9
:100E80001CD000203F4908702078401C2070DFF8FB
:100E90003C040078022802D12078401C2070DFF842
:100EA0002006007850F00100DFF8141608700C21BD
:100EB0000022DFF81046200000F088FD13BD00007E
:100EC0002C0000001CB50400DFF8FC0500F0C4FC99
:100ED0000121019103210091C823DFF8E0250100E1
:100EE000C9B2DFF8E405FFF761F9002802D02078E5
:100EF000401C207013BD0000340200204E12002060
:100F000080B5DFF8C8050078002802D0012805D098
:100F100007E0DFF8B805FFF7D5FF02E0FFF706FFAF
:100F2000FFE701BDF4010020003801404A12002013
:100F3000FC58000880B545480078002805D00228F4
:100F40000FD007D3032818D01AE040490120FFF73B
:100F50008DFB15E03D4ADFF878150120FFF776FF9D
:100F60000EE03A480090DFF83435DFF83425DFF83A
:100F700034153120FFF711FC02E0FFF7C1FFFFE756
:100F800001BD00004F12002080B5DFF84815097838
:100F900000290BD0C0B2012802D0022803D005E0FE
:100FA000FFF7CAFE02E0FFF7C5FFFFE701BD000043
:100FB0004C0200206058000870B504000D000026A7
:100FC000002600E0761CF6B2FF2E28D0280000F0A4
:100FD00043FC02002900F6B2301900F039FD002868
:100FE000F0D1280000F038FC8019DFF8EC1408700C
:100FF000DFF8E80490F80D06DFF8DC140978401AF1
:10100000DFF8DC140870280000F026FC0100002244
:10101000F6B23419200000F0D9FC012000E00020D5
:1010200070BD000054020020C40100205A120020AC
:101030003000000031000000FC000020050100200D
:101040000059000864010020481200204D120020C1
:10105000400200200402002070B50400002509E0D1
:1010600016210022EDB2162000FB0546300000F0EC
:10107000ADFC6D1CEDB2162000FB05400078002889
:10108000EED170BDF8B504000D0000260027002643
:101090000CE0280000F0E0FB02002900F6B2301955
:1010A00000F0D6FC002800D17F1C761C200000F048
:1010B000D3FBF6B28642ECD33800C0B2F2BD10B515
:1010C0001C00C9B2C0B280180A000100200000F064
:1010D00041FC10BD2DE9F84304000D001600002767
:1010E0005FF000085FF00009002717E0280000F01B
:1010F000B3FB02002900FFB2381900F0A9FC002858
:101100000BD118F101085FFA88F8F6B2B04504D1A6
:10111000280000F0A1FB10EB07097F1C200000F065
:101120009BFBFFB28742E1D34846C0B2BDE8F283E1
:10113000F0B587B004000D0068460021002206C00B
:10114000083802A8142100F0EDFC01222C2128000F
:10115000FFF712F96E4602002900300000F0FAFB9A
:101160009DF800002070607850F00100607004224B
:1011700022212800FFF700F906000322222128007F
:10118000FFF7FAF80700032222212800FFF7F4F8FE
:10119000F6B2FFB2F11B4A1EC0B24019411C02ADAB
:1011A000280000F0D7FB02A800F056FB02A9A41CFF
:1011B0000200200000F0CEFB07B0F0BD2DE9F047A3
:1011C000CCB004005FF00008002700250026684628
:1011D0004FF4967100F0A6FCAE48FFF73DFFC14901
:1011E0002000FFF74FFF07005FF0000846E00422F1
:1011F00022216846FFF7C0F8814603222221684673
:10120000FFF7BAF88246032222216846FFF7B4F8B6
:101210005FFA89F95FFA8AFAB9EB0A014A1E694650
:10122000C0B24018411C9B48EDB2162303FB0500D9
:10123000801C00F00DFC002808D1761C69469548FA
:10124000EDB2162202FB0500FFF772FF6D1C9148FC
:10125000EDB2162101FB050000780028C7D100255A
:10126000F6B2002E08D169468A485FFA88F816223D
:1012700002FB0800FFF75CFF18F101085FFA88F82D
:10128000FFB2B84517D218F10102D2B26FA1200007
:10129000FFF720FF814618F10102D2B291492000E8
:1012A000FFF718FF6B462200B9F10301C9B2C0B2C3
:1012B000FFF705FFCBE74CB0BDE8F0876E010020DB
:1012C00014020020D4010020045900087C020020F0
:1012D000300100203C01002030B5C1B00400684658
:1012E0004FF4807100F01EFCE078002800F0A2802E
:1012F000E07810F0FE00E07056A114F58270FFF760
:101300005BFE002802D001205C490870764914F584
:101310008270FFF751FE002802D001205949087061
:10132000724914F58270FFF747FE00280ED06C4812
:1013300002786A4868490978081800F20D71464D2C
:10134000280000F007FB01203B490870684914F5AC
:101350008270FFF731FE002806D1664914F58270CD
:10136000FFF72AFE002805D00120634908700020FD
:101370005849087052480078002803D13448007852
:10138000002849D05D4914F58270FFF715FE00284A
:101390000DD15B4914F58270FFF70EFE002806D1CF
:1013A000584914F58270FFF707FE002802D000208C
:1013B00046490870544914F58270FFF7FDFD002876
:1013C00014D05248007810F0FE005049087044488C
:1013D000027841480078001910F582716D462800A6
:1013E00000F0B8FA6846FFF7E9FE15E0484914F541
:1013F0008270FFF7E1FD00280ED0012045490870FA
:101400004248007850F00100404908704248007896
:1014100010F0FE0040490870404914F58270FFF753
:10142000CBFD002806D03E480078002802D10120DC
:101430002249087041B030BD5112002080B53948B2
:1014400000F016F93748FFF747FF01BD0D0A00000D
:10145000501200200D0A3E00B01000202012002083
:10146000AC0F002028120020AE0F0020D458000836
:10147000DC58000808590008A00100205212002082
:10148000AB01002054120020940E002055120020C1
:1014900053120020B0110020A90E00206C02002081
:1014A0002402002064020020105800082058000880
:1014B000381200200C590008840100204C12002032
:1014C0005612002091010020E40100205712002054
:1014D0005C020020481200205812002080020020E8
:1014E000591200206C58000878580008E458000889
:1014F000EC580008845800084E120020905800084C
:101500009C58000830580008A85800085B120020BA
:10151000B45800084D1200204A120020F458000868
:101520005A1200208908002080B5FFF787FF0120AC
:10153000FFF789F80120FFF727FD01BD10B586B040
:101540000400012144F2040000F04DFB4FF4007050
:10155000ADF8000003208DF8020018208DF803007C
:101560006946DFF8C00200F06DFB4FF48060ADF813
:10157000000004208DF803006946DFF8A80200F09F
:1015800061FB01940020ADF808000020ADF80A00CE
:101590000020ADF80C000020ADF810000C20ADF8D4
:1015A0000E0001A9DFF8800200F0C6FB012240F224
:1015B0002551DFF8740200F02DFC0121DFF86802EC
:1015C00000F01AFC4021DFF8600200F061FC06B078
:1015D00010BD10B586B0040001215FF4802000F03A
:1015E00012FB0121082000F0FEFA4FF48060ADF8F4
:1015F000000003208DF8020018208DF803006946D2
:10160000DFF82C0200F01EFB4FF40060ADF8000084
:1016100004208DF803006946DFF8140200F012FB85
:1016200001940020ADF808000020ADF80A00002069
:10163000ADF80C000020ADF810000C20ADF80E0045
:1016400001A9DFF8F00100F077FB012240F22551FB
:10165000DFF8E00100F0DEFB0121DFF8D80100F047
:10166000CBFB4021DFF8CC0100F012FC06B010BD2E
:1016700038B504007248007802282BDB2078002857
:1016800028D000206E490870A078617888421FD168
:10169000E07850F00100E070207810F0FE0020703B
:1016A00060782071002060702279611D14F58275C8
:1016B000280000F04FF9227914F582715A4800F0A1
:1016C00040F8FF210022641D200000F07FF901E0B6
:1016D0006078A07031BD80B54FF4806000F0DEFB13
:1016E00025208DF8000001208DF8010001208DF8E3
:1016F000020001208DF80300684600F0D4FB4FF48F
:10170000806000F0CBFB27208DF8000000208DF8D2
:10171000010001208DF8020001208DF803006846C9
:1017200000F0C1FB01BD10B50400C9B289B22000B0
:1017300000F099FB8021200000F09DFB0028F9D0EB
:1017400010BDF8B504000D0016000027002707E0C3
:10175000795D2000FFF7E7FFC82000F0CAF87F1C82
:10176000F6B2B742F4D34021200000F084FB0028F9
:10177000F9D0F1BD10B5040008000021012121704D
:1017800000F075FB01006078FA2806D26078421CF0
:101790006270C0B20019417101E00020607010BD9C
:1017A00080B540F22551204800F065FB002803D0A9
:1017B0001D492448FFF7DEFF01BD80B540F22551E9
:1017C0001A4800F058FB002803D018491E48FFF7BC
:1017D000D1FF01BD80B540F22551164800F04BFB0A
:1017E000002803D013491948FFF7C4FF01BD80B595
:1017F00040F22551104800F03EFB002803D00E496E
:101800001348FFF7B7FF01BD80B540F225510B48E3
:1018100000F031FB002803D008490E48FFF7AAFF6B
:1018200001BD0000000801400038014000440040B4
:10183000000C014000480040004C004000500040B7
:10184000451200208304002086060020890800201D
:101850008C0A00208F0C002000F10103810704D0C6
:1018600010F8011B89B18107FAD10268B2F1013188
:10187000914311F0803F04BF50F8042FF6E710F8B1
:10188000011B11B110F8011BFBE7C01A7047026879
:10189000531C03601170704710B504007FF0040002
:1018A00000F030FBE4B2082094FBF0F01D49087012
:1018B0001C4800784FF47A7148431B49088010BDDA
:1018C00080B219490988484318490860002018491E
:1018D00008600120174908601648006810F00110E0
:1018E0000128F9D000201349086000201049086041
:1018F00070470C49097848430C49086000200C499E
:10190000086001200B4908600A48006810F00110C7
:101910000128F9D000200749086000200449086028
:1019200070470000441200204012002014E000E044
:1019300018E000E010E000E038B5040000250025C4
:1019400004E04FF47A70FFF7BBFF6D1CA4B2A54210
:10195000F7DB31BD62B38B0708D0521E11F8013B93
:1019600000F8013B00F024808B07F6D1830740F09C
:10197000208000BF103A07D330B4B1E83810103AD5
:10198000A0E83810F9D230BC530724BFB1E80810E2
:10199000A0E8081044BF51F8043B40F8043BD207CC
:1019A00024BF31F8022B20F8022B44BF0B780370C0
:1019B0007047083A07D3B1E80810083A40F8043BEA
:1019C00040F804CBF7D25307E4E7000062F30F229C
:1019D00062F31F42401810F0030308D0C91A1FD346
:1019E000DB0748BF00F8012D28BF20F8022D1300A7
:1019F00030B414461546103928BF20E93C00FAD807
:101A0000490728BF20E90C0048BF40F8042D890091
:101A100028BF20F8022D48BF00F8012D30BC7047C8
:101A2000C91818BF00F8012DCB0728BF00F8012DF9
:101A30007047024600E0521C1378002BFBD111F8CE
:101A4000013B137012F8013B002BF8D170470000E6
:101A50000300002013F0030F09D0521E22BF13F819
:101A6000010B11F801CBB0EB0C00F3D07047121F43
:101A700022BF53F8040B51F804CB6045F7D0121D78
:101A80000AD200BA9CFA8CFCB0EB0C0038BF6FF0A5
:101A9000000088BF01207047521E22BF13F8010BBF
:101AA00011F801CBB0EB0C00F6D0521C08BF104669
:101AB0007047000080B50121042000F094F8022056
:101AC000ADF8000003208DF8020010208DF803000F
:101AD0006946134800F0B6F80120ADF80000032075
:101AE0008DF8020010208DF8030069460C4800F0C4
:101AF000A9F800F003F800F007F801BD80B5022155
:101B0000074800F00AF901BD80B50121044800F042
:101B100004F901BD80B50221014800F001F901BDC1
:101B200000080140002200F009BA00000021002155
:101B3000002200213C49096811F00C01002904D061
:101B4000042905D0082906D021E03849016020E0A9
:101B5000364901601DE03449096811F47011324AB8
:101B6000126812F48032890C891C002A03D1304A91
:101B7000514301600AE02C4A1268920303D52C4AB3
:101B80005143016002E0294A5143016001E02749C5
:101B900001602549096811F0F0010909254A895CAD
:101BA0000268CA4042602049096811F4E061090AEC
:101BB000204A895C4268CA4082601B49096811F466
:101BC0006051C90A1B4A895C4268CA40C260164912
:101BD000096811F44041890B174A895CC268B2FB5D
:101BE000F1F101617047C9B2002905D013490968B4
:101BF00008431249086005E01049096831EA00000D
:101C00000E4908607047C9B2002905D00C4909681F
:101C100008430B49086005E00949096831EA0000FA
:101C200007490860704700000410024000127A0063
:101C300000093D00B4010020740200201810024089
:101C40001C10024070B4002200250023002600244E
:101C50000025CA7812F00F02CB78DB0601D58B780D
:101C60001A430B781B0621D00468002306E0CD78C8
:101C7000482D02D101259D4005615B1C082B14D223
:101C8000012515FA03F60D883540B542F5D19E00C1
:101C90000F25B540AC4312FA06F52C43CD78282D1C
:101CA000E5D101259D404561E7E704600B88FF2BE6
:101CB00026DD4468002320E0012513F1080615FA0B
:101CC00006F60D883540B54216D19E000F25B54069
:101CD000AC4312FA06F52C43CD78282D04D101250A
:101CE00013F10806B5404561CD78482D04D1012592
:101CF00013F10806B54005615B1C082BDCD344607A
:101D000070BC70470022806889B2084201D001226D
:101D100000E000221000C0B2704789B20161704734
:101D200089B241617047D2B2002A02D089B2016102
:101D300001E089B24161704770B586B004000D00C2
:101D400000200020002100210026A889002826006C
:101D5000208A4CF6FF710840E98808432082A08958
:101D60004EF6F3110840A9882A8911436A89114364
:101D70000843A081A08A4FF6FF410840A989084383
:101D8000A0826846FFF7D2FE1A48864201D1039826
:101D900000E00298A189090406D519214843296861
:101DA0004900B0FBF1F105E0192148432968890099
:101DB000B0FBF1F16420B1FBF0F0000102096423F3
:101DC00003FB1211A289120408D5C9003231642222
:101DD000B1FBF2F111F00701084307E009013231CC
:101DE0006422B1FBF2F111F00F010843208106B02B
:101DF00070BD000000380140C9B2002904D08189BB
:101E000051F40051818104E081894DF6FF72114047
:101E10008181704730B4002300240024002589B25A
:101E200040F66A13994205000800C0B24309DBB2CC
:101E300089B211F01F04012010FA04F4012B01D122
:101E40000C3504E0022B01D1103500E01435D2B27C
:101E5000002A03D028682043286002E02868A043B5
:101E6000286030BC7047C905C90D818070478088E3
:101E7000C005C00D7047002289B2B1F5007F00880F
:101E8000084201D0012200E000221000C0B27047D9
:101E900089B28A0589B2C943018070472149084344
:101EA000214908607047002100220F23C1780029D2
:101EB0001DD01D49096811F4E061D1F5E061090AFE
:101EC000D1F10402CB404178914082781A4011430D
:101ED0000901164A037899540121027812F01F0271
:101EE0009140134A0078401142F8201009E0012186
:101EF000027812F01F0291400E4A0078401142F819
:101F000020107047042806D10B48006850F00400E8
:101F10000949086005E00848006830F004000649F7
:101F2000086070470000FA050CED00E000E400E0F6
:101F300000E100E080E100E010E000E000B500BF5B
:101F4000130096469446103928BFA0E80C50FAD8E2
:101F50005FEA417C28BF0CC048BF40F8042BC9078A
:101F600028BF20F8022B48BF00F8012B00BD00005D
:101F70002DE9F04F80460FF21C60A5B017461D46B4
:101F8000D0E90023CDE91223002004910D900DF13A
:101F9000500A6FF0004900E0E7190020ADF8020098
:101FA00012AB4FF0FF3239460DF1020001F089F813
:101FB0000446012C04DA3878441EA441E443E40FBB
:101FC000BDF8020025280CBFA4F1010BA346BBF10C
:101FD000010F0EDB3E4616F8011B0498C04700288F
:101FE000049000F0D2820D98401CBBF1010B0D90C3
:101FF000F1D1BDF80200252807D1002007900890F4
:1020000009900A900B900C9005E00028C4D10D981F
:10201000BDE240F0010017F8011F2029F9D0232963
:102020000DD02B2904D02D2906D030290AD00CE060
:1020300040F0020080B2EEE740F00400FAE740F022
:102040000800F7E740F01000F4E72A290ED12968CC
:10205000296051F8042B2960002A0F9204D55142BF
:1020600040F004000F9180B27F1C11E000210F911D
:1020700009E00F99494505D001EB810302EB4301CB
:1020800030390F917F1C3A78A2F130010A29F0D340
:1020900039782E2903D04FF0FF310E911DE017F84B
:1020A000011F2A2907D1296829607F1C51F8042BB8
:1020B00029600E9211E000210E9109E00E99494528
:1020C00005D001EB810302EB430130390E917F1CF7
:1020D0003A78A2F130010A29F0D3ADF840000FF2AE
:1020E000BC40397800F0FEFF08B117F8010B8DF8FD
:1020F00042009DF84200682802BF397868296220B2
:1021000005D06C2804BF38786C2803D171208DF875
:1021100042007F1C14A8069017F8014BB4F125006B
:102120002AD01C3800F0CB80001F022840F2C78064
:10213000133800F0EC80093800F0C180801E00F0F8
:102140005381401E00F02C81401E022840F2B780CF
:10215000001F00F02581401F00F08280401E00F02B
:10216000D680401E2CD0C01E0BD0801E00F0CF8029
:10217000C01E00F0CC805AE125208DF850000120CF
:102180005EE19DF842006C282868286014D050F861
:10219000046B286005960E9C002C04D53046FFF792
:1021A0005BFB044606E022460021304600F0A6FF15
:1021B00000B1841B089444E150F8042B28602FE1FF
:1021C000296829603C2451F8040B29600021CDE9DD
:1021D000020114A80590DDE90201069E11B908B9B3
:1021E0000E9AB2B10206120FA0EB02123032D2B236
:1021F000631E3A2AA8BF273200099A5540EA0170A7
:10220000090908BF00281C4603D0059AA3199A4261
:10221000E8D3A0190590C4F13C010E9808918142C1
:1022200009DA401A0A904FF6EF71BDF840000840F5
:10223000ADF8400005E1002840F103819DF8400021
:1022400000F01400102840F0FC800F98079A801AC4
:102250000A9A801A441A012CC0F2F3800A94F0E022
:102260009DF8420062281AD0682806D06A280CD04F
:102270006C281CD0712808D019E02868286050F814
:10228000041B28600D980880DBE02868286050F85F
:10229000042B28600D98C117C2E90001D1E028681D
:1022A000286050F8041B28600D980870C9E0286861
:1022B000286050F8041B28600D980860C1E0286869
:1022C000C01D20F007022A60D2E9000108322A600E
:1022D000CDE90201002902D507982D210AE0BDF8B9
:1022E0004000810702D507982B2103E0C00705D5E0
:1022F0000798202100F80A10401C079014A807999D
:1023000008180590214602A800F090FB99E09DF87E
:1023100042006C280DD0712818BF6A2809D128689E
:10232000C01D20F007022A60D2E9000108322A60AD
:1023300005E02968296051F8040B29600021CDE9E6
:1023400002019DF84200682803D1DDE9020180B254
:102350000BE0622803D1DDE90201C0B205E0742878
:1023600018BF7A2804D1DDE902010021CDE902017C
:102370009DF8400000072ED5DDE90201002908BFC5
:10238000002828D044F02000782824D10798302154
:1023900000F80A10401C411C079100F80A401AE09E
:1023A0009DF84200294600F0FDF8CDE90201002920
:1023B00002DA07982D210AE0BDF84000810702D516
:1023C00007982B2103E0C00705D50798202100F8C6
:1023D0000A10401C079014A8079908180590214678
:1023E00002A800F09FFA2CE09DF842006C2809D06A
:1023F000012007902868286050F8041B28608DF899
:1024000050101EE02868286001AA50F8041B2860BC
:10241000ADF804100020ADF806004FF0FF300E902C
:1024200002A9404600F0F5F800280AD5ADE02520C5
:102430008DF85000012007901CB18AF8014002205D
:1024400007900F980799401A0A99401A0899401A5C
:102450000B99401A0999401A0C99441A9DF84000AA
:10246000400710D420208DF80000002609E0012349
:102470006A4602A9404600F000FE002840F0858030
:10248000761CA642F3DB079E0DF1500B0AE01BF809
:10249000011B0498C0470028049076D00D98401C7A
:1024A0000D90761E002EF2D130208DF800004FF0F6
:1024B000000B0A9E09E001236A4602A9404600F08B
:1024C000DCFD002861D10BF1010BB345F3DB089E65
:1024D000DDF814B00AE01BF8011B0498C04700287F
:1024E000049052D00D98401C0D90761E002EF2D113
:1024F00030208DF800004FF0000B0B9E09E0012307
:102500006A4602A9404600F0B8FD00283DD10BF113
:10251000010BB345F3DB05980899099E01EB000B0D
:1025200009E01BF8011B0498C047049068B30D989C
:10253000401C0D90761E002EF3D130208DF8000047
:102540004FF0000B0C9E08E001236A4602A94046AA
:1025500000F093FDC8B90BF1010BB345F4DB9DF816
:10256000400040077FF519AD20208DF800000026BF
:1025700000E0761CA642BFF610AD01236A4602A910
:10258000404600F07AFD0028F3D04FF0FF3025B030
:10259000BDE8F08F0000000000000000686A6C7465
:1025A0007A4C0000622826D068281DD06A2808D0FE
:1025B0006C2827D0712804D0742823D07A280CD016
:1025C00020E00868C01D20F007000860D0E9002363
:1025D000083008601946104670470A680A6052F8C9
:1025E000040B0A60002170470A680A6052F8040B65
:1025F0000A6000B20BE00A680A6052F8040B0A6035
:1026000040B204E00A680A6052F8040B0A60C1177D
:1026100070472DE9F44F0D4694B0D5F830B0BBF1BA
:10262000000F804648BF6FF0004B00F093FD696BD0
:10263000401801900FF67020D0E90023CDE9022365
:1026400095F83800400702D40198412806D240206E
:102650000DF1100A01904FF0000909E000F080FD33
:102660005FEA000AF7D14FF0FF3058E1ABEB040B03
:10267000BBF1010FC0F2CD801498018802AA0DF1C0
:10268000010000F0C5FD0028044600F1D580149833
:10269000008810B9641E00F1CF80A345C0F2B98054
:1026A000686901992218914280F0A180296AC5F8D1
:1026B00034904042401AA969401A696A401AE9698F
:1026C000401AA96AA0EB010995F83800400710D418
:1026D00020208DF80000002609E001236A462946E3
:1026E000404600F0CAFC002840F0A680761C4E450B
:1026F000F3DB6E6957460BE017F8011BA868C0476B
:102700000028A86000F09880E86A401CE862761E05
:10271000002EF1D130208DF8000000272E6A09E04C
:1027200001236A462946404600F0A7FC002840F0F5
:1027300083807F1CB742F3DBAE69EF680AE017F8CD
:10274000011BA868C0470028A86075D0E86A401C33
:10275000E862761E002EF2D130208DF800000027AE
:102760006E6A08E001236A462946404600F085FC6F
:10277000002861D17F1CB742F4DBE868A969EE69E3
:102780000F180AE017F8011BA868C0470028A860C6
:1027900052D0E86A401CE862761E002EF2D130204A
:1027A0008DF800000027AE6A08E001236A4629463A
:1027B000404600F062FC00283ED17F1CB742F4DBAB
:1027C00095F8380040070ED520208DF8000000262F
:1027D00007E001236A462946404600F04EFC58BBFC
:1027E000761C4E45F5DB4FF00009C5F814902246E3
:1027F00068690DF101015044FFF7ACF868692018D1
:1028000068611498801C1490801E008800287FF452
:102810002DAF686B6969401A296A401AA969401A84
:10282000696A401AE969401AA96A471A95F8380096
:10283000400710D400240CE04FF0FF3968E0A8688E
:102840002021C0470028A860F6D0E86A401CE86252
:10285000641CBC42F3DB6B6952462946404600F0DB
:102860000CFC0028E8D12C6A002609E0A868302179
:10287000C0470028A860DFD0E86A401CE862761CE8
:10288000A642F3DBAB69EA682946404600F0F5FB57
:102890000028D1D16C6A002609E0A8683021C04721
:1028A0000028A860C8D0E86A401CE862761CA642EE
:1028B000F3DBE868A969EB690A182946404600F08D
:1028C000DCFB0028B8D1AC6A002609E0A8683021FA
:1028D000C0470028A860AFD0E86A401CE862761CB8
:1028E000A642F3DB95F8380040070DD5002409E037
:1028F000A8682021C0470028A8609DD0E86A401C35
:10290000E862641CBC42F3DBC5F81490C5F834904F
:1029100004A882451CBF504600F088FC484615B00C
:10292000BDE8F08F2DE9FA4E05460A462F696F2A59
:1029300008BF082405D041F02000782814BF0A24DD
:1029400010243C26D5E90001642A18BF692A814673
:102950008A4605D1002903DAD9F100096AEB4A0A4F
:10296000BAF1000F08BFB9F1000F0CD1286B50B9B4
:10297000082C36D195F83800000732D530203B2698
:1029800087F83B002DE0E31748465146224600F009
:102990008DFCA4FB0023A9EB02023032D2B2A6F1D7
:1029A000010B3A2A5E4603DB9DF80030513B9A1832
:1029B0000BF8072081465FEA010A08BFB9F1000F52
:1029C00003D0E868F1198842DDD3082C09D195F8C5
:1029D0003800000705D5F05D302802D0761E302083
:1029E000F055C6F13C00A861F119E960296B8842F5
:1029F00008DA081A28624FF6EF71288F08402887F6
:102A0000BDE8F38E00290ED595F8381001F01401B9
:102A1000102908D1696B6A69891A2A6A891A0E1AFB
:102A2000012EA8BF2E62BDE8F38E00002DE9F24F03
:102A300004468EB0D4E90001CDE9020104AF9DF84F
:102A4000380040F0200BBBF1610F0AD0206B00284A
:102A500048BF062004D408BFBBF1670F01D1012095
:102A600020636168C1F30A5040F2FF7290421CD1AA
:102A7000080304BF2068002809D10320A0619DF845
:102A8000380061381A2836D30FF2306108E003208D
:102A9000A0619DF8380061381A2829D30FF214611B
:102AA000E0680322FEF756FFBEE1012816DA204651
:102AB00000F073FC012811DB00250020BBF1610F41
:102AC00020D1E168302201F8012B4A1CE2609DF818
:102AD0003820612A0CBF782258220FE0626840F249
:102AE000FE3161F31E52451A62604FF0FF30E5E798
:102AF0000FF2BC51D4E70FF2C051D1E70A706169FF
:102B0000891C616110B90026002584E1BBF1610FC9
:102B100040F09780206B00284CBF2126461CD4E94A
:102B200000ABDDE902010022002300F057FC36B2C1
:102B30003ABF8BF00040CDE902A0CDE902AB06F12F
:102B400001082D1F8DF810200DF1110700E0C71DA1
:102B5000B8F1010F33DBDDE902010022002300F0B0
:102B600055FC2CD21C2102A800F068FCDDE9020112
:102B700000F0EAFCA8F10708B8F1010F814609DB73
:102B800000F00EFD02460B46DDE9020100F020FDDB
:102B9000CDE90201F81D072105E009F00F0200F858
:102BA000012D4FEA2919B9F1010F01DB491EF4D5B6
:102BB000491E5CBF002200F8012DF9D5C7E70DF1D1
:102BC0001100391AB142B8BF0E4636B230000DF1CD
:102BD00011072FD4884206DA04A941184978082938
:102BE000A8BF0F2100DA002104AA821800E0761E97
:102BF00012F80139401E8B42F9D00F2904D104A9E3
:102C000041184A78521C4A70002802D504AF761C3D
:102C10002D1D36B2701E0DD4C1190A783032D2B2D1
:102C20003A2A03DB9DF838303A3B9A18401E01F8E7
:102C30000129F2D5206B002840F1ED80701E206341
:102C4000E9E0DDE902010022002300F0C7FB3CBF00
:102C500081F00041CDE902012DB247F2975068435F
:102C60004B49DFF8309190FBF1F52DB2C5F1070A21
:102C7000BAF1010F90461CDBDDE902675FEACA701A
:102C800007D542464B463046394600F061FD0646C0
:102C90000F464046494642464B464FEA6A0A00F014
:102CA00057FDBAF1000F80468946E7D1CDE90267AA
:102CB00024E0CAF1000A0026374F14E05FEACA7028
:102CC00007D542464B463046394600F041FD0646A0
:102CD0000F464046494642464B4600F039FD4FEA12
:102CE0006A0A80468946BAF1000FE7D1DDE90201A0
:102CF00032463B4600F0FEFDCDE90201BBF1660F16
:102D00000CBF05F10A000620216BDFF890904618F1
:102D1000142EA8BF132630208DF810000DF11107D6
:102D2000012E3DDBDDE9020100F024FC07F1080182
:102D300004220A23B0FBF3F303EB8307A0EB470065
:102D4000303001F8010C0A20B3FBF0F000EB8007F3
:102D5000A3EB47033033521E01F8023DE9D1083E90
:102D6000012E01F10807DBDBDDE9020100F002FCC6
:102D700000F020FC02460B46DDE9020100F028FCD1
:102D800000224B4600F0E4FCCDE90201CAE700BF97
:102D9000A0860100000024400000F03F84D7974146
:102DA0000DF11100381A0DF1110702E0401E6D1EE1
:102DB0007F1C39783029F9D0BBF1660F02D12DB2D2
:102DC000691C04E0BBF1650F0CBF01210021226BDF
:102DD0008E1836B2B042B8BF064636B231001AD4A9
:102DE000814204DAC85D3528A8BF392000DA3020D6
:102DF000CA19521E00E0761E12F80139491E83429C
:102E0000F9D0392802D1C85D401CC855002902D527
:102E10007F1E761C6D1C2DB29DF83810009533B2C4
:102E20003A46204600F003F80FB0BDE8F08F2DE9D8
:102E3000F04786B006468A4690461D4600F0A3FE3F
:102E4000012D406A376B90F8009002DA01250FF2ED
:102E500070284AF02000BDF93840662808BF641C7D
:102E600012D0672876D114F1040F79DBBC4277DAEF
:102E700096F83800641C000702D4BD42B8BF2F4644
:102E800024B23F1B48BF002724B2F068B169012C6F
:102E900021DA4A1C30230B54012F03DA96F838103C
:102EA000090702D502F80090521CB261E742B8BF90
:102EB0007C4224B26142E7197162AF42B8BF3D461D
:102EC000B3692DB2F5612A4641461818FEF742FD56
:102ED000781BB062BAE00818A54216DA2A464146C5
:102EE000FEF738FDB1696918601B012FB16170628E
:102EF00003DA96F83800000705D5F06801F800906D
:102F0000F069401CF061B762A0E022464146FEF73E
:102F100021FDB06920182D1B012F03DA96F8381017
:102F2000090703D5F16800F80190401C2DB2B0618B
:102F3000AF42B8BF3D46F068B3692DB22A4604EBF4
:102F400008011818FEF706FDB0692818B061781B53
:102F500070627BE0BAF1610F14D14FF0700A16E095
:102F6000BD4204DA96F83810090758BF2F467F1E75
:102F700048BF0027BAF1670F14BF4FF0450A4FF062
:102F8000650A04E0BAF1410F08BF4FF0500AB16979
:102F9000F0684A1CB261012F18F8013B0B5403DAA8
:102FA00096F83810090715D5531CB36102F8009044
:102FB000012F0FDB6D1E2DB2AF42B8BF3D462DB2C3
:102FC0002A4641461818FEF7C5FCB0692818B061BA
:102FD000781B7062F068B1690918200081F800A0C0
:102FE00004D42B20487001F1020804E02D224A701D
:102FF00001F102086442002502AF08E00A22684697
:1030000000F0DAFD019807F8010B6D1C009C21B25D
:103010000129F3DA022D06DA4AF02000652804BF00
:10302000302008F8010B4DB9302008F8010B07E0FB
:103030006D1E02A8285C303008F8010B012DF7DA6C
:10304000F068B1690818A8EB0000F06196F8380044
:1030500000F0140010280DD17069B1690818716A68
:103060000818F1690818B16A0818716B8842BCBF6A
:10307000081A306206B0BDE8F087F8B504460D4680
:1030800016461F46002004E0E86A401CE8627F1EE6
:10309000002047B116F8011BA868A0470028A860C7
:1030A000F2D14FF0FF30F2BD000000000000000040
:1030B0006E616E004E414E00696E6600494E4600DC
:1030C0003000F8B504460D4616461F4600F07CFD5C
:1030D0003B4632462946204601B0BDE8F04000F0AC
:1030E0008ABD00000278C9B28A421AB11CBF10F82A
:1030F000012FF9E718BF002070470000C9B283070D
:1031000006D0521E22D310F8013B9942F7D11FE09E
:10311000083A13D302F1040241EA012141EA0141D4
:1031200050F8043B121F21BF4B40A3F1013C2CEA95
:10313000030C1CF0803FF3D0C9B2001F083210F816
:10314000013B521E28BF91EA030FF8D818BF012097
:10315000401E704780B500F037FD012002BD000021
:1031600070B5054605F10F00C408C046C046E4002E
:10317000A54232D2082C04D2082402E0083000F024
:1031800055F82248026811000CD1011D0A6802B3EB
:103190001368A34238BF111DF8D310E01D68A54283
:1031A0000DD2191D0B68002BF8D11268011D00E02B
:1031B000191D0B6893420CD01D68A542F8D361B16C
:1031C0000D682A68A2F10803A3420AD26A680A605D
:1031D0000FE000F033FD0028D0D1C046C0460020EB
:1031E00070BD63190B60121B6E685E600B681A601D
:1031F0002C60096800291DBF4A68002A091D0021AA
:103200000160C046C04605F1080070BD30120020C4
:1032100070B504460D46164600F0D6FC32462946E7
:103220002046BDE8704000F0D9BC000000B97047EE
:1032300038B5A0F108042068082833D310F0070F30
:1032400030D1C046C0461848416809B18C4203D20B
:103250006160446017E019464B680BB1A342FAD392
:103260000B685D18AC421BD3A54204D12268D2186A
:103270000A600C4607E04A681AB123681B199A4293
:103280000ED362604C60616851B1226813198B42A1
:1032900006D10023036008688018206048686060D9
:1032A000C046C04631BD0000301200201B4213D181
:1032B000094236D12AB18446B0FBF2F002FB10C2BB
:1032C000704700F0D1BCFCD30022002370470B00F4
:1032D0000200002100207047904271EB030CF6D3EE
:1032E00070B5B1FA81F4B3FA83F52C1BA340C4F195
:1032F000200532FA05F63343A2405FF00046E6406F
:1033000002E05B085FEA3202841A71EB030524BF16
:10331000204629467641F4D302000B0030000021FC
:1033200070BD012ACFD970B5140C20D0B1FA81F448
:10333000B2FA82F5C4F120046419B4F12006D6D3A0
:10334000B2405FF00044F440002502E052085FEA1A
:103350003303C61A71EB020E24BF30467146644136
:103360006D41F3D302000B002000290070BD0C4614
:10337000B1FBF2F102FB11452D0445EA1045B5FB06
:10338000F2F402FB145580B240EA0545B5FBF2F0B9
:1033900002FB105240EA044070BD30B4436803F0B1
:1033A000004201211B031B0B436004BF0368002B79
:1033B00008D10DE00368DD0F45EA440444605B007A
:1033C0000360491E4468E302F4D523031B0B4360EA
:1033D00043681A434260084630BC70474FF4001CF3
:1033E0001CEB410F94BF1CEB430F09E041EA030CB7
:1033F00050EA4C0C52EA0C0C03D2994208BF90429E
:10340000704714BF8B428242704700004FF4001C8B
:103410001CEB410F94BF1CEB430F09E041EA030C86
:1034200050EA4C0C52EA0C0C03D28B4208BF824289
:10343000704714BF994290427047000070B504462F
:103440000D466068C0F30A5040F2FF71884207D110
:103450006068000304BF2068002817D0022070BDF8
:1034600020B92046FFF799FF012866DA012D0FDB0E
:1034700040F2FF71091A8D420AD36068002847BFE5
:1034800000202F4900202F49C4E90001012070BD10
:103490004142A942616806DA6FF31E51401941EAC0
:1034A0000050606040E0401E63684519012205F14C
:1034B000350062F31F53352801F00041636003D3E8
:1034C00061600020206070BD002015F11F0F04DA3C
:1034D000206823600022203562606A4212D0401EBC
:1034E00025688041C2F12003C0439D4045EAD07069
:1034F00025686668D54006FA03F32B4323606368AA
:10350000D340636062680A43B0F1004F626003D841
:103510000DD12078C0070AD52068401C20602068A3
:1035200028B96068401C60604FF0FF3070BD606873
:10353000884204BF20680028F6D1002070BD00BF7B
:103540000000F0FF0000F07FF446400D40EAC1208B
:10355000490006D200F014F8004248BF6FF0004066
:10356000604700F00DF84FF0004188428CBF0846DC
:1035700040426047400D40EAC120490080F00D8084
:1035800040F00040490DA1F58061491C05D4D1F1FE
:103590001F0154BFC840C01770474FF0000070476C
:1035A000010040F10980F446404200F005F851F076
:1035B00000416047010000BF09D0B0FA80F18840A7
:1035C000C91CC1F58461090501EBD0214005704794
:1035D000F0B44FF0004591EA030F44BF6B4000F098
:1035E0004FBB00BF841A71EB030604D26E40001B70
:1035F000B141121973414FF4001C1CEB410F34BF51
:103600007CEB430684E00C0DA4EB1356362E7DDCD8
:10361000012E43DC45EAC32343EA525312BFD202D0
:1036200092025B08240545EAC12141EA5051D2EBE0
:10363000C020994125D407D1B0FA80F610FA06F1DE
:1036400064D00020203608E0B1FA81F6B140C6F11E
:10365000200220FA02F21143B0404FEAF474B4EBB6
:10366000465434F001064FEA74040AD8D6F5001621
:10367000760D04F00044F04061FA06F25040F1404B
:103680004840C00A40EA415021F0004128BF5FEAAB
:10369000500550F1000044EBD12137E045EAC32347
:1036A000DB0A45EAC121C90AB6F120050EDD42EA6E
:1036B0000242120CC5F1200603FA06F6EB4042EA7C
:1036C00006056D42984161F100010DE062FA06F5D0
:1036D000F240554063FA06FC82EA0C02F3405A407D
:1036E0006D42904161EB030111F4801F05D1641E0E
:1036F000620502D06D004041494121F48011430828
:1037000075F1004350F1000041EB0451F0BC7047EB
:103710001CEB410F15D223F0004352EA43060BD0B5
:103720004FEA4C0CBCEB410F04D80C0D661E342E36
:10373000B7DDEBE7801A994150EA410608BF002146
:10374000E4E708BF1CEB430F28BF6FF00001DDE783
:10375000B0B581EA030C0CF0004C40F2FF7515EA9D
:1037600011541DBF15EA1357AC42AF4239E0E419BA
:1037700023EA455343F48013C90241F0004141EA72
:10378000505EC7021100A7FB020200284FF00000A4
:10379000EEFB01204FF00001E3FB072118BF42F0D0
:1037A0000102401800214941E3FB0E01A4F58064A9
:1037B0000F0302D252004041494154F101046CDD33
:1037C000470872F1004250F1000051EB0451A1F59D
:1037D00080115CBF41EA0C01B0BD4CEA05510020EC
:1037E000B0BD05EA1357AC4214BFAF4241E050EA06
:1037F000410E1CBF52EA430E02E061460020B0BDFC
:1038000024423C441BD15FEA070EF6D0090302BFF5
:1038100001460020AEF1140EB1FA81F7AEEB0704B9
:1038200001FA07FE0C37C7F1200100FA07F7C8407C
:103830004EEA000E23EA455343F48013A2E733F027
:103840000043B3FA83F704BFB2FA82FE77440B3F1A
:10385000E41BB7F1200E2FBF02FA0EF3BB40C7F1F5
:10386000200E22FA0EFE38BF43EA0E03BA40641C53
:1038700082E750EA410E14BF52EA430E6FF0000196
:103880004FF4001717EB430F8ABF194617EB410F90
:10389000B5E74CEA05510020B0BDD4F10104B4F104
:1038A00020070FDAC4F12007520828BF42F00102B6
:1038B00010FA07F501FA07F7E1BF2A43E040384361
:1038C000E1400FE0352C98DCC7F1200452EA4002B9
:1038D00020FA07F218BF42F0010231FA07F0A140C6
:1038E0000A43002172F1004250F1000051EB0C013B
:1038F000B0BD00002DE9F04140F2FF7581EA030CF4
:103900000CF0004C15EA11541DBF15EA1357AC42D8
:10391000AF42E9E0BC41C1F31301C3F31303801AC2
:10392000994143F4801304D2641E40004941801839
:103930005941C90241EA5051B1FBF3F603FB16119C
:10394000A2FB0675D7EBC020A94102D2761E8018D3
:103950005941C90241EA5051B1FBF3FE03FB1E116C
:10396000A2FB0E75D7EBC020A94103D2AEF1010E28
:1039700080185941890241EA9051760546EA8E2E17
:10398000B1FBF3F603FB1611A2FB0675D7EB802003
:10399000A94102D2761E80185941C90241EA50510C
:1039A0004EEA060EB1FBF3F603FB1611A2FB0675F9
:1039B000D7EBC020A94102D2761E80185941C90216
:1039C00041EA5051B1FBF3F703FB1711A2FB073596
:1039D000D3EBC020A94167F100070CBF004247F0BC
:1039E000010766F3D5274FEA1E31B80814F5806445
:1039F00014DDBD0775F1004250EB0E5051EB045140
:103A000011F5801F5CBF41EA0C01BDE8F0814CF06C
:103A10007F6141F0E0410020BDE8F081BD076D0805
:103A200040EA0E5041F48011D4F10104B4F12006B3
:103A30000ADAC4F120060200E04001FA06F3E14090
:103A40001843B24015430EE0342C14DCC6F12004B8
:103A500045EA40056D0820FA06F2154321FA06F002
:103A6000A1400D43002175F1004250F1000051EBDF
:103A70000C01BDE8F08100205FEA0C01BDE8F08197
:103A8000CFB992185B41B3FA83F704BFB2FA82F65A
:103A9000BF190B3FB7F120062FBF02FA06F3BB4058
:103AA000C7F1200622FA06F638BF3343BA401CB1EC
:103AB000E419641E2FE77F4231F00041B1FA81F42E
:103AC00004BFB0FA80F6A4190B3CB4F120062FBF56
:103AD00000FA06F1A140C4F1200620FA06F638BF2C
:103AE0003143A0403C1B16E7AC421ABF05EA13570E
:103AF000AF4214E050EA41061CBF52EA4306BFE75A
:103B000050EA4107304661461CBF41EA0551BDE815
:103B1000F08152EA430C08BFC143BDE8F0810020A8
:103B20004FF4001616EB410F98BF16EB430F08BF7A
:103B300016EB410F24BFC14305E016EB430F0CBF4A
:103B400061464CEA0551BDE8F081000080B513489C
:103B500000F000F90FF24C020FF2440101604262E2
:103B600041600FF24402826381600FF24402C1603F
:103B70000161416181618162C16201634163C2632C
:103B80000164416401BD10B5044800F0E3F8044647
:103B9000206808B9FFF7DAFF204610BD00000020BA
:103BA000000000002E00000066616C7365000000DC
:103BB000747275650000000091FBF2F303FB1211B3
:103BC000C0E900317047000080B5DFF80C0000F05C
:103BD000C1F8806902BD00009000002030B430B907
:103BE0000FF24800D0E90045C2E900451BE0017032
:103BF000012030BC704730B431B90FF23800D0E941
:103C00000045C3E900450EE01AB930BC6FF0010071
:103C1000704708B10A7802800978481E804130BC9C
:103C2000C043C00F7047002030BC70470000000048
:103C300000000000000000000000000007490868C4
:103C400008B1002070470648C008C0000860054958
:103C5000C908C900091A0160704700BF3C12002062
:103C6000671A00206022002070470000F0B44FF077
:103C7000004591EA030C44BF6B40FFF7B3BC00BFA3
:103C8000841A71EB030603D2001BB1411219734170
:103C90004FF4001C1CEB410F34BF7CEB430443E0AA
:103CA0000C0DA4EB1356352E50DC45EAC323DB0A7A
:103CB00045EAC121C912B6F120050DDD63FA05F60A
:103CC000EB4086EA0305124218BF45F00105C01813
:103CD00051F100010CD213E062FA06F5F2405540B2
:103CE000F3415A40B340F3405A408018594107D33A
:103CF00049085FEA30005FEA350528BF45F0010555
:103D000001F58011420875F1004250F1000041EBCD
:103D10000451F0BC4FF4001C1CEB410F38BF70473E
:103D20000020090D090570471CEB410F10D252EA23
:103D300043060BD0BCEB410F05D80C0DAB43661E00
:103D4000342EB5DD02E0AB4380185941F0BC70471A
:103D5000F0BC704770470000000000000000000049
:103D60000000000000000000000000F8000000005B
:103D7000000000333000000000100C06100C06009C
:103D8000000000000000000040C07840C078400003
:103D9000043F04043F040400007088FC0830000065
:103DA000001820FF211E0000F008F000E0180000BD
:103DB00000211C031E211E0000F008887000000076
:103DC0001E2123241927211010160E0000000000C8
:103DD0000000000000000000000000E018040200E5
:103DE000000000071820400000020418E000000056
:103DF0000040201807000000404080F08040400054
:103E00000202010F01020200000000F000000000A9
:103E10000101011F0101010000000000000000007D
:103E200080B07000000000000000000000000000F2
:103E3000000101010101010100000000000000007B
:103E40000030300000000000000000008060180416
:103E5000006018060100000000E010080810E000F3
:103E6000000F102020100F00001010F800000000BC
:103E70000020203F20200000007008080888700003
:103E80000030282422213000003008888848300083
:103E90000018202020110E000000C02010F80000A3
:103EA00000070424243F240000F80888880808003C
:103EB0000019212020110E0000E010888818000051
:103EC000000F112020110E0000380808C838080023
:103ED0000000003F000000000070880808887000A3
:103EE000001C222121221C0000E010080810E00024
:103EF0000000312222110F00000000C0C0000000AD
:103F000000000030300000000000008000000000D1
:103F100000008060000000000000804020100800C9
:103F20000001020408102000404040404040400092
:103F3000040404040404040000081020408000006D
:103F40000020100804020100007048080808F00072
:103F50000000003036010000C030C828E810E00042
:103F60000718272423140B000000C038E0000000CD
:103F7000203C23020227382008F888888870000037
:103F8000203F202020110E00C0300808080838000B
:103F9000071820202010080008F808080810E00082
:103FA000203F202020100F0008F88888E808100023
:103FB000203F20202320180008F88888E8081000F7
:103FC000203F200003000000C0300808083800002F
:103FD00007182020221E020008F808000008F80830
:103FE000203F210101213F20000808F808080000B7
:103FF0000020203F2020000000000808F8080800EA
:10400000C08080807F00000008F888C02818080061
:10401000203F20012638200008F80800000000009A
:10402000203F20202020300008F8F800F8F8080091
:10403000203F003F003F200008F830C00008F8088B
:10404000203F200007183F00E01008080810E0009B
:104050000F10202020100F0008F808080808F000B2
:10406000203F210101010000E01008080810E000D5
:104070000F18242438504F0008F88888888870006A
:10408000203F2000030C302000708808080838000A
:104090000038202121221C00180808F80808180000
:1040A0000000203F2000000008F808000008F80881
:1040B000001F202020201F000878880000C8380832
:1040C000000007380E010000F80800F80008F800AA
:1040D000033C0700073C0300081868808068180844
:1040E00020302C03032C30200838C800C8380800C2
:1040F0000000203F2000000010080808C838080011
:104100002038262120201800000000FE02020200B4
:104110000000007F40404000000C30C00000000064
:10412000000000010638C00000020202FE0000008C
:10413000004040407F000000000004020202040032
:10414000000000000000000000000000000000006F
:104150008080808080808080000202040000000057
:10416000000000000000000000008080808000004F
:104170000019242222223F2008F80080800000003D
:10418000003F112020110E00000000808080000000
:10419000000E112020201100000000808088F8000F
:1041A000000E112020103F20000080808080000041
:1041B000001F222222221300008080F088888818A5
:1041C0000020203F202000000000808080808000B0
:1041D000006B94949493600008F800808080000045
:1041E000203F210000203F20008098980000000020
:1041F0000020203F20200000000000809898000050
:1042000000C08080807F000008F80000808080006F
:10421000203F24022D302000000808F80000000094
:104220000020203F2020000080808080808080004F
:10423000203F20003F20003F8080008080800000E1
:10424000203F210000203F2000008080808000006F
:10425000001F202020201F008080008080000000A0
:1042600080FFA12020110E000000008080808000CF
:10427000000E112020A0FF808080800080808000C0
:1042800020203F21200001000000808080808000ED
:104290000033242424241900008080E08080000062
:1042A0000000001F202000008080000000808000AF
:1042B000001F202020103F20808080000080808010
:1042C00000010E30080601008080008000808080A0
:1042D0000F300C030C300F000080800080808000C5
:1042E0000020312E0E3120008080800000808080F0
:1042F00080818E70180601000080808080808000A0
:104300000021302C2221300000000000807C0202BD
:1043100000000000003F404000000000FF000000DF
:1043200000000000FF0000000002027C800000008E
:104330000040403F000000000006010102020404AA
:10434000000000000000000001E000BF401E002847
:10435000FBD100BF00BF00BF00BF704780B5402148
:10436000DFF8B404FDF7D9FC8021DFF8AC04FDF7D9
:10437000D4FC00BF00BF00BF00BF00BF8021DFF83A
:104380009804FDF7CDFC4021DFF88C04FDF7C8FC54
:1043900000BF00BF00BF00BF00BF01BD80B540210E
:1043A000DFF87404FDF7BCFC8021DFF86C04FDF736
:1043B000B7FC00BF00BF00BF00BF00BF4021DFF857
:1043C0005804FDF7AAFC8021DFF84C04FDF7A5FC9A
:1043D00000BF00BF00BF00BF00BF01BD38B5040073
:1043E00000251AE08021DFF83004FDF799FC402118
:1043F000DFF82404FDF791FC00BF00BF00BF00BF41
:1044000000BF4021DFF81004FDF78AFC640000BF04
:1044100000BF00BF00BF00BF6D1CEDB2082D07DA62
:104420002006DFD58021DFF8F003FDF776FCDEE71C
:104430008021DFF8E403FDF770FC4021DFF8D803AA
:10444000FDF76BFC00BF00BF00BF00BF00BF4021F5
:10445000DFF8C403FDF764FC00BF00BF00BF00BF6E
:1044600000BF31BD10B50400FFF778FF7820FFF7DB
:10447000B5FF4020FFF7B2FF2000C0B2FFF7AEFF4C
:10448000FFF78CFF10BD10B50400FFF767FF782021
:10449000FFF7A4FF0020FFF7A1FF2000C0B2FFF745
:1044A0009DFFFFF77BFF10BD10B50400B1F1500078
:1044B000C0B2FFF7E8FF2000C0B2000950F01000C2
:1044C000C0B2FFF7E0FF14F00F00FFF7DCFF10BDF4
:1044D00070B50400002508E02000C0B2FFF7C2FF5D
:1044E000761CF6B2802EF7DB6D1CEDB2082D0CDACF
:1044F000B5F15000C0B2FFF7C6FF0120FFF7C3FFC0
:104500001020FFF7C0FF0026EBE770BD1FB50400C9
:104510006846DFF808131022FDF72CFAE4B2E00732
:1045200005D510236A460021002000F07FF8E4B290
:10453000A00705D510236A460221002000F076F876
:10454000E4B2600705D510236A460421002000F07C
:104550006DF8E4B2200705D510236A460621002035
:1045600000F064F81FBD80B500F03FF94FF4FA7019
:10457000FFF7EAFEAE20FFF786FF0020FFF783FF7C
:104580001020FFF780FF4020FFF77DFF8120FFF71D
:104590007AFFCF20FFF777FFA120FFF774FFC82035
:1045A000FFF771FFA620FFF76EFFA820FFF76BFF54
:1045B0003F20FFF768FFD320FFF765FF0020FFF7DC
:1045C00062FFD520FFF75FFF8020FFF75CFFD92057
:1045D000FFF759FFF120FFF756FFDA20FFF753FFEF
:1045E0001220FFF750FFDB20FFF74DFF4020FFF7C1
:1045F0004AFF2020FFF747FF0220FFF744FF8D20EE
:10460000FFF741FF1420FFF73EFFA420FFF73BFF19
:10461000A620FFF738FFAF20FFF735FF0020FFF798
:1046200057FF00210020FFF73FFF01BD2DE9F047B4
:1046300004000D0016001F005FF000095FF0000A83
:104640005FF0000815E076485FFA89F95FFA8AFAA8
:104650001AEB09110818007AFFF704FF1AF1010A92
:104660005FFA8AFABAF1080FEDDB083418F1010895
:104670007F1EFFB2002F30D05FFA88F818F80600CE
:10468000B0F12009E4B2792C04DBEDB2052D01DA9A
:104690000024AD1C2900C9B22000C0B2FFF704FFFE
:1046A0005FF0000A0BE05E485FFA89F95FFA8AFA68
:1046B0001AEB0911085CFFF7D5FE1AF1010A5FFA3F
:1046C0008AFABAF1080FEEDB691CC9B22000C0B249
:1046D000FFF7EAFE5FF0000AC2E7BDE8F0872DE9C8
:1046E000F0470E005FF0000800240025C0B201284A
:1046F00006D002281CD004281CD008281CD01DE09D
:1047000000273000FDF7A8F880465FFA88F8B8F176
:10471000110F1BDA5FFA88F8B8F1000F16D0434684
:10472000DBB232003900C9B20020FFF77FFF48E05A
:104730000227E6E70427E4E70627E2E71023394AE1
:1047400001210020FFF772FF01253AE05FFA88F8A7
:10475000B8F1110030282DD25FFA88F8102098FBAC
:10476000F0FA5FF000090CE010235FFA89F916EB0C
:1047700009123900C9B20020FFF758FFBF1C19F118
:1047800001095FFA89F95FFA8AFAD145ECD35FFA39
:1047900088F8102098FBF0F101FB10810B00DBB2D0
:1047A0005FFA89F916EB09123900C9B20020FFF748
:1047B0003DFF06E010231C4A02210020FFF736FFD0
:1047C0000124E4B2012C05D11023184A0421002051
:1047D000FFF72CFFEDB2012D05D10F23144A042160
:1047E0000020FFF723FFBDE8F08780B501210820F6
:1047F000FDF7F9F9C020ADF8000010208DF8030096
:1048000003208DF8020069460348FDF71BFAC0211A
:104810000148FDF782FA01BD000C0140D0570008A5
:10482000583D00088457000898570008AC57000806
:10483000E057000880B501210820FDF7D4F90620D3
:10484000ADF8000010208DF8030002208DF8020062
:104850006946DFF89403FDF7F5F901BD80B5042042
:10486000ADF8000010208DF8030002208DF8020042
:104870006946DFF87403FDF7E5F901BD80B5042052
:10488000ADF8000048208DF8030002208DF80200EA
:104890006946D548FDF7D6F901BD04E0491EC9B205
:1048A0000029FBD1401EC0B2002801D00A21F6E742
:1048B000704780B5FFF7BEFF01BD10B5FFF7CEFF13
:1048C0000421C948FDF729FA0A20FFF7E6FF022173
:1048D000C548FDF725FA0A20FFF7DFFF00240EE0A8
:1048E0000221C148FDF719FA0A20FFF7D6FF02217D
:1048F000BD48FDF715FA0A20FFF7CFFF641CE4B2AC
:10490000092CEDDB00F09BF810BD38B50400002544
:10491000FFF7A4FF802518E00421B348FDF700FA53
:104920000A20FFF7BAFF0221AF48FDF7F6F90A2087
:10493000FFF7B3FF0221AC48FDF7F2F90A20FFF7B9
:10494000ACFFEDB2022095FBF0F5EDB2002D08D0E2
:104950002800C0B22042DFD00421A348FDF7DDF9D2
:10496000DEE7FFF78BFF04219F48FDF7D6F90A2009
:10497000FFF793FF02219C48FDF7CFF90A20FFF7CC
:104980008CFF04219848FDF7BDF9050002219648E7
:10499000FDF7C6F92800C0B232BD70B5040000268C
:1049A00004219148FDF7B9F90A20FFF776FFFFF7D8
:1049B00065FF802518E002218B48FDF7AEF90A203B
:1049C000FFF76BFF04218848FDF79CF9002800D011
:1049D0002E4302218448FDF7A3F90A20FFF75DFF6B
:1049E000EDB2022095FBF0F5EDB2002DE3D1FFF71B
:1049F00035FFE4B2002C01D1012200E00022D2B246
:104A000004217948FDF78FF90A20FFF746FF0221BC
:104A10007548FDF782F90A20FFF73FFF022172482F
:104A2000FDF77EF90A20FFF738FF04216E48FDF7F5
:104A300074F90A20FFF731FF3000C0B270BD80B5B5
:104A4000FFF70CFF04216848FDF767F90A20FFF71C
:104A500024FF02216448FDF763F90A20FFF71DFFD8
:104A600002216148FDF759F90A20FFF716FF0421DA
:104A70005D48FDF755F90A20FFF70FFF02215A485C
:104A8000FDF74EF90A20FFF708FF02215648FDF70F
:104A900044F90A20FFF701FF04215348FDF73DF9CF
:104AA0000A20FFF7FAFE02214F48FDF739F90A20E4
:104AB000FFF7F3FE01BD2DE9F04104000D001600E3
:104AC00000275FF00008FFF7F8FEF6B2002E02D0D4
:104AD000012E05D009E00320FFF717FF070004E0CF
:104AE0000520FFF712FF0700FFE7002F01D001208C
:104AF00022E0FFF7C3FE404610F101083B4988421F
:104B000005D204213848FDF7FDF80028F3D104212F
:104B10003548FDF7F7F8002801D001200CE001200E
:104B2000FFF73BFF60700120FFF737FF2070002088
:104B3000FFF733FF28700020BDE8F0812DE9F44F26
:104B400083469A46DFF8A8902A4C2B4DDFF8AC80BC
:104B50002B4E088800F064F80700BBF8000000F056
:104B60005FF800F06DF8274A274BFEF7F1FD0022B1
:104B7000264BFFF77BF800F08BF8834628003900BE
:104B800000F0CEF8390000F0CBF805002000390025
:104B900000F0C6F8290000F02FF9494600F02CF982
:104BA00004001B48594600F027F905003000390081
:104BB00000F0B6F8414600F01FF9290000F0B0F807
:104BC000210000F019F9134900F058F900D81248F3
:104BD000124900F065F900D210480099C1F800B000
:104BE000CAF80000BDE8F18F000C0140801A0600F1
:104BF000000080C054E3253DA2E73BB60AD7233C22
:104C0000ACC5A7387B14AE47E17A843F000044C0AE
:104C10000000C8C10100C8420000C842CDCCCC3D54
:104C2000002800BF0AD0B0FA80F18840D1F19D0180
:104C3000C905020672F1004241EB102070470000E6
:104C40005FF0FF0C1CEAD05114BF614506E0C110B3
:104C5000400721F0E04101F16051704779B900F05F
:104C6000004100020AD0B0FA80FC00FA0CF001F119
:104C70006051A1EB0C5101EBD0214005704741027E
:104C80000CBF40F4E0016FF000010020704700000D
:104C90004FEAF17CBCF1E04C2CBFBCF5001F11E0E9
:104CA0005FEA4C0C34BFBCF17F5F2EE05FEA9C0CE6
:104CB0004FEA0C1C4FEA3C0CC10071F100414CEB77
:104CC00050707047C90241EA5051C00218BF41F00C
:104CD000010141F000414FEA6C50C0F10900212868
:104CE00010D240EACC7CCCF1200C11FA0CF070F11F
:104CF0000040CCF1200C21FA0CF00CF0004C40EB01
:104D00000C0070474FEACC707047490011F5001F46
:104D100004D84FEACC10FF30C0057047C817704761
:104D2000FF2212EAD05C1DBF12EAD1539445934290
:104D30002BE09C44D30780EA01021A4043EA00209A
:104D400043EA0121A1FB0030410038BF40007CF163
:104D50007F010BDBFE294ADA5B0842EAC15153EAC4
:104D6000006373F1004C51EB10207047D1F1080C37
:104D7000DCF120012FDB5B0810FA01F10B4373F12A
:104D8000004120FA0CF05041704794451CBF02EAE4
:104D9000D153934280EA010202F000421DD040004C
:104DA00019D0490017D05BB9634514D00902B1FA94
:104DB00081F39940BCEB030CC00140F00040C1E717
:104DC0000002B0FA80FC10FA0CF0B3EB0C0CC90135
:104DD00041F00041B6E71000704740000AD049009A
:104DE00008D010F1807F94BF11F1807F02E042F083
:104DF000FF407047D043704790EA010F44BF81F0F5
:104E0000004100F05FB800BF421A3CBF801A891809
:104E10004FF0004CC0F3C752FF2A24D0C1F3C75350
:104E200013B3D21AD2F1190327DD4CEA01214CFA4F
:104E300003F321EA0303D140C20D4CEA00204018DD
:104E400034BF20EA0C004CEA5000D20553EA00635C
:104E500073EB0C0C52EB1020420012F1807F38BF34
:104E60007047C00DC0057047490212BF9A4200EB5F
:104E70005120F8E7D2F11703D9D570474FF0807C65
:104E80001CEB400F94BF1CEB410F05E040EA010C06
:104E90005FEA4C0C01D28142704718BF88427047CC
:104EA0004FF0807C1CEB400F94BF1CEB410F05E0E2
:104EB00040EA010C5FEA4C0C01D28842704718BFEF
:104EC00081427047431A4FF000423EBF5340C01A20
:104ED000C91800BFD3095FEAD05C13EB400F34BFA1
:104EE000B3EB410F40E07CEBD1530CD342EA0121FC
:104EF00022D8D1EB402009D3400A28BF5FEA5001F5
:104F000040EBCC507047401A15D04002B0FA80F206
:104F1000521C9040400A4FEA3C23B3EB026384BF2B
:104F200000EB730007E040F400001A16DB07C2F143
:104F30000102D04018437047182BFCDC31FA03F211
:104F400002FA03F3591A38BF42F00102D2EB4020B3
:104F50003CBF4000ACF1010C5FEACC5CC20572F1D1
:104F600000414CEB5020704713EB400F0FD24B0029
:104F700009D0ACEBD153022B03DB4902172BDDDD4B
:104F800070479143401A4300D5D10020704713EB7E
:104F9000410FD0D36FF000007047000080B5C0B261
:104FA000FCF77AFC01BD80B500F0B6F801BD80B514
:104FB0004FF46140FCF7C2FA01BD80B5FCF77AFD01
:104FC00001BD80B500F044F94820FFF7E7FFFFF787
:104FD000EAFFFFF7ECFFFBF7ABF8FCF77CFBFFF712
:104FE000C2FAFFF766FCFFF7E8FF0E2239493A489C
:104FF000FCF7A7FB0220FCF79FFC01BD38B50400BD
:10500000E07800281CD0E07810F0FE00E070334813
:10501000FCF722FC3149324D02002800FCF79AFCD3
:1050200020792F490875227914F582712D4C2000C2
:10503000FCF790FC2C48007850F001002A490870D9
:1050400031BD80B52948FCF713FB2848FFF7D6FF90
:1050500001BD80B5FFF7F5FF01BD10B5244800780C
:10506000002835D02248007810F0FE002049087052
:105070002048007810F0FE001E49087000201E49EC
:10508000087000201D4908701D48007810F0FE00CF
:105090001B490870292100221A4C2000FCF796FCBD
:1050A00014210022184C2000FCF790FC262100223D
:1050B000164C2000FCF78AFC09210022144C200029
:1050C000FCF784FC0C210022124C2000FCF77EFC33
:1050D00010BD0000C0570008003801402402002025
:1050E000940E0020A90E00205512002083040020F9
:1050F00049120020481200204D12002057120020B3
:105100004F120020050100206E0100203C0100200C
:10511000AB0100209101002000B585B001210120E4
:10512000FCF771FD41F28830ADF808004720ADF87A
:1051300004000020ADF80A000020ADF8060001A927
:105140005FF0804000F030F9012201215FF08040E3
:1051500000F081F901215FF0804000F06EF94FF41A
:105160008060FCF79BFE1C208DF8000002208DF86B
:10517000010001208DF8020001208DF8030068462F
:10518000FCF791FE05B000BD80B501215FF08040C5
:1051900000F06DF9002836D001215FF0804000F06A
:1051A0007AF927480078401C25490870244800787F
:1051B000FA2802DB00202249087022480078401CAF
:1051C000204908701F480078FA2802DB00201D499A
:1051D00008701D480078401C1B4908701A48007868
:1051E000FA2802DB00201849087018480088401C83
:1051F00016490880154800884FF6FA71884202DB8C
:1052000000201249088001BD80B501210A4800F044
:105210002EF9002803D00121074800F03CF901BD18
:1052200080B50121054800F022F9002803D00121B2
:10523000024800F030F901BD0004004000080040C1
:105240004512002046120020471200204212002082
:1052500080B54E48006850F001004C4908604C4849
:1052600000684C4908404A490860484800684A4973
:105270000840464908604548006830F480204349AA
:1052800008604348006830F4FE00414908605FF45C
:105290001F004249086000F005F85FF000604049D7
:1052A000086001BD80B500F001F801BD82B00020AA
:1052B0000190002000903548006850F48030334958
:1052C00008603248006810F4003000900198401CDB
:1052D00001900098002803D10198B0F5A06FF0D19B
:1052E0002A480068800302D50120009001E00020D8
:1052F00000900098012847D12A48006850F010001B
:10530000284908602748006880088000254908600F
:105310002448006850F00200224908601C480068D8
:105320001B4908601A480068194908601848006855
:1053300050F48060164908601548006830F47C100D
:10534000134908601248006850F4E81010490860DA
:105350000E48006850F080700C4908600B480068E7
:105360008001FBD50A480068800880000849086071
:105370000748006850F002000549086004480068CA
:1053800010F00C000828F9D102B07047001002405C
:10539000041002400000FFF8FFFFF6FE0810024074
:1053A00008ED00E00020024000220288DFF8F03023
:1053B000984212D0DFF8003198420ED0B0F1804F01
:1053C0000BD0DFF8E030984207D0DFF8DC309842AD
:1053D00003D0DFF8D830984204D14FF68F731A40CB
:1053E0004B881A43DFF8C830984208D0DFF8C43041
:1053F000984204D04FF6FF431A40CB881A430280EC
:105400008A8882850A880285DFF8942090420FD02E
:10541000DFF8A42090420BD0DFF8A020904207D004
:10542000DFF89C20904203D0DFF89820904201D111
:10543000097A0186012181827047C9B2002904D00E
:10544000018851F00101018004E001884FF6FE72ED
:10545000114001807047D2B2002A03D082891143E3
:10546000818103E0828932EA010181817047002253
:1054700000220023028A0A40808911EA000392B2C6
:10548000002A04D09BB2002B01D0012200E00022B0
:105490001000C0B2704789B2C94301827047000052
:1054A000002C01400004004000080040000C0040B7
:1054B0000010004000140040003401400040014052
:1054C000004401400048014010B58CB008A81021EC
:1054D000FCF728FB04A81021FCF724FBFFF771FD63
:1054E00005E0FCF721F8FFF7B4FDFFF7B6FD27480C
:1054F00000680028F5D00024002203A96846FFF7C1
:10550000DAFA0419012203A90DF10200FFF7D3FA18
:105510000419E4B2002C34D102AB01AA0DF102014E
:105520006846FFF70BFB0198FFF78AFB02000B00B0
:10553000174908A800F034F80298FFF781FB020031
:105540000B00144904A800F02BF80420FEF7DEFF3E
:105550000820FEF7DBFF08A90420FFF7C0F804A924
:105560000820FFF7BCF804AB08AA0B490B4800F071
:1055700017F80A48FCF770F90100C9B20748FAF7B2
:1055800003FE4FF4FA60FCF79BF9B0E738120020F5
:10559000F057000800580008CC580008A90E002059
:1055A0000CB41CB5044604A801900A46009401AB53
:1055B0006946074878441830FCF7DAFC009A002165
:1055C000117000285CBF0098001B16BC5DF80CFB36
:1055D000BFC2FFFF816807E002681168536889183D
:1055E0005B18C36008320260C2689142F4D04A1C62
:1055F0008260087870472DE9FF4D00F108010091A5
:1056000000270268520801EBC2010191B84600214F
:10561000029103910168490800EBC101406800F064
:10562000010501F10804400804EBC00630E06846BB
:10563000FFF7D0FF4FFA80FA0AE0009801680818D7
:10564000009902904968081803900098083000906B
:10565000029803998842F0D010F801BB02904745A8
:105660000CD1B44208BF00F01DF8276805B14F44C3
:10567000606800EB070808344745F2D0BAF1000F24
:1056800007F801BB0AD51AF1010AE8D14745CED186
:10569000B442CCD1304604B0BDE8F08DBAF1010A75
:1056A000D6D5F3E7012000F001B8000080B5C04670
:1056B000C046024A11001820ABBEFBE726000200DC
:1056C00019E050F8041BCB0744BFA9F10103591896
:1056D000121F0023042A41F8043BF9D25FEA827CBE
:1056E0000B4604D54FF0000CA1F800C09B1CD1075D
:1056F00044BF0021197050F8042B002AE1D17047F3
:1057000010B5074979441831064C7C44163404E03E
:105710000A68081D511888470146A142F8D110BDFA
:10572000080000003000000099FFFFFFDC0F0000C0
:105730008002002000000000BFFEFFFF020000000A
:1057400002000000A00200000B0100000000002089
:105750007D02000000F00BF8002801D0FFF7D0FF19
:105760000020C046C046FFF7AFFE00F002F801205F
:10577000704700F001B8000007463846FFF796FF73
:10578000FBE70000496E707574204C696E6520451A
:1057900072726F7200000000496E7075742053744D
:1057A00072204572726F72210000000043686563C9
:1057B0006B20537472204C656E67746800000000A3
:1057C00044313D4F4E2044313D4F46460D0A0000C6
:1057D00020202020202020202020202020202020C9
:1057E000436865636B204C696E65204E756D2100C2
:1057F00054656D70203D20252E3166430000000069
:1058000048756D69203D20252E3166252500000054
:1058100041542B4349504D4F44453D310D0A000042
:1058200041542B43495053454E440D0A000000009B
:10583000434F4E4E454354204641494C0D0A00000B
:10584000014880470148004751520008C1580008EC
:105850007047FEE7FEE7FEE7FEE7704770477047D8
:1058600041542B4357534150000000002B434950F3
:105870005354415455533A0053454E44204F4B0D19
:105880000A000000696E76616C69640D0A00000010
:10589000434F4E4E4543540D0A000000434C4F53B6
:1058A00045440D0A000000005354415455533A3307
:1058B0000D0A00005354415455533A340D0A000068
:1058C000C046C046C046C046FFF744FF25732C259E
:1058D000730A000044313D4F4E00000044313D4FFB
:1058E000464600002B495044000000007265616488
:1058F000790D0A000D0A4F4B0D0A00000D0A000039
:105900000D0A00000D0A00000D0A00000D0A00003B
:10591000FFF7FEBFFFF7FEBFFFF7FEBFFFF7FEBFBB
:10592000FFF7FEBFFFF7FEBFFFF7FEBFFFF7FEBFAB
:10593000FFF7FEBFFFF7FEBFFFF7FEBFFFF7FEBF9B
:10594000FFF7FEBFFFF7FEBFFFF7FEBFFFF7FEBF8B
:10595000FFF7FEBFFFF7FEBFFFF7FEBFFFF7FEBF7B
:10596000FFF7FEBFFFF7FEBFFFF7FEBFFFF7FEBF6B
:10597000FFF7FEBFFFF7FEBFFFF7FEBFFFF7FEBF5B
:10598000FFF7FEBFFFF7FEBFFFF7FEBFFFF7FEBF4B
:10599000FFF7FEBFFFF7FEBFFFF7FEBFFFF7FEBF3B
:1059A000FFF7FEBFFFF7FEBFFFF7FEBFFFF7FEBF2B
:1059B000FFF7FEBFFFF7FEBFFFF7FEBFFFF7FEBF1B
:1059C000FFF7FEBFFFF7FEBFFFF7FEBFFFF7FEBF0B
:1059D000FFF7FEBFFFF7FEBFFFF7FEBFFFF7FEBFFB
:1059E000FFF7FEBFE400F8FFDC00FAFF8100D10002
:1059F0000841542B43574A41503DD5000B41542B8D
:105A000043495053544152543DD8000941542B430B
:105A100049505354413DEA000C41542B43495053E3
:105A200045525645523DF1000A41542B43495053CB
:105A3000454E443DF300180102030401020304062D
:105A400007080941542B43574D4F44453D300D0A3B
:105A5000FD000C41542B4349504D55583D300D0A23
:105A6000FD001B41542B4349505354415455530D91
:105A70000A000041542B524553544F52450D0AFC25
:105A80000007776966692D303031F8001B313932F3
:105A90002E3136382E34332E313432000031393243
:105AA0002E3136382E34332E31FC000741542B5220
:105AB00053540D0AFC000F31323334353637383940
:105AC00030000041540D0AFC000B415445300D0AD2
:105AD000000038303830FC0002544350FB000338DB
